:100000000C9439000C9431040C9458040C947F0423
:100010000C9456000C9456000C9456000C94560008
:100020000C9456000C9456000C9456000C945600F8
:100030000C9456000C9456000C9456000C945600E8
:100040000C9456000C9456000C9456000C945600D8
:100050000C94560005A84CCDB2D44EB93836A9023E
:100060000C50B9918688083CA6AAAA2ABE000000B6
:10007000803F11241FBECFE5D8E0DEBFCDBF10E02A
:10008000A0E6B0E0E2E5F9E102C005900D92A83AE1
:10009000B107D9F720E0A8EAB0E001C01D92A33B68
:1000A000B207E1F70E946E020C94A70C0C940000BA
:1000B0000E94140480E00E941B04BC0180E090E0D8
:1000C0000E94FC062AE038E240EA5BE30E942E0828
:1000D00020E030E040E352E40E942E0808950E94A0
:1000E000140481E00E941B0464E172E0681B790B38
:1000F00080E090E00E94FC0620E030EC4FE754E402
:100100000E94540620E030E040EA50E40E942E08AD
:1001100020E030E040E250E40E94C60520E030E0FC
:1001200049E353E40E9454060E94EE0968EE73E02E
:100130000E94D608072E000C880B990B0E94FE0621
:10014000089565E082E00E941F058111FACF12BE7A
:1001500081E00E94550581E083BF64E082E00E9457
:100160001F058111FACF13BE82B790E09093A900CA
:100170008093A80008952091AA003FEF239F800D4F
:10018000911D1124BC016F5F7F4F80E090E00E94C1
:10019000FC0620E034E244E759E40E94540620E0E3
:1001A00030E040E752E40E942E0820E030E044EBCB
:1001B00053E40E942E0827EA37EE4EE85CE30E94E3
:1001C0002E0829EC36E74EEB5DE30E94C6050E943F
:1001D0004F069F77089588B3877F88BB0000000093
:1001E00082E896E09093AC008093AB0006C00000DC
:1001F00001979093AC008093AB008091AB009091FD
:10020000AC000097A1F788B3886088BB0895CF93AE
:10021000C82F82B38F709C2F907F892B82BB88B3AD
:10022000897F88BB0E94EB0022B330E1C39FC001ED
:100230001124922F9F70892B82BB88B3897F88BB42
:100240000E94EB00CF910895CF93DF931F92CDB71B
:10025000DEB7898392B389819F70807F892B82BBAF
:1002600088B3826088BB88B38B7F88BB0E94EB0019
:1002700022B3998130E1939FC0011124922F9F7086
:10028000892B82BB88B3826088BB88B38B7F88BB95
:100290000E94EB000F90DF91CF91089581E00E94C2
:1002A000070108958AE992E09093AC008093AB0037
:1002B00006C0000001979093AC008093AB00809142
:1002C000AB009091AC000097A1F787B38E6087BB1D
:1002D00088B3817F88BB81B3806F81BB84EF91E05D
:1002E0009093AC008093AB0006C000000197909300
:1002F000AC008093AB008091AB009091AC00009774
:10030000A1F70E944E0182E00E94070188E20E944C
:10031000070186E00E94070180E80E9407018FE044
:100320000E9407010895611106C0803158F4805879
:100330000E9407010895613029F4803118F4805437
:100340000E94070108950F931F93CF93DF938C01B1
:10035000C0E0D0E018C00F5F1F4F0E94240121961B
:10036000C031D10529F461E080E00E9493010BC007
:10037000C032D10544F00E944E0160E080E00E944E
:100380009301C0E0D0E0F80180818111E4CFDF91DA
:10039000CF911F910F9108950F931F93CF93DF93E8
:1003A000CDB7DEB72A970FB6F894DEBF0FBECDBF2C
:1003B0009F938F9380E690E09F938F938E010F5FC2
:1003C0001F4F1F930F930E94F409C8010E94A301BD
:1003D0000F900F900F900F900F900F902A960FB6DE
:1003E000F894DEBF0FBECDBFDF91CF911F910F916B
:1003F00008958F929F92AF92BF92CF92DF92EF9229
:10040000FF920F931F93CF93DF93CDB7DEB7609723
:100410000FB6F894DEBF0FBECDBF6B017C0120E0AC
:1004200030E0A9010E944A0688231CF403E610E08C
:1004300002C009E710E020E030E0A901C701B601E1
:100440000E944A06882324F4F7FAF094F7F8F0940F
:10045000C701B6010E94C6064B015C01072E000CC5
:10046000880B990B0E94FE069B01AC01C701B601E7
:100470000E94C60520E030E44CE156E40E942E08BC
:100480000E94C6067F936F939F928F921F930F9344
:1004900085E690E09F938F938E010F5F1F4F1F9310
:1004A0000F930E94F409C8010E94A3010FB6F894AB
:1004B000DEBF0FBECDBF60960FB6F894DEBF0FBE95
:1004C000CDBFDF91CF911F910F91FF90EF90DF9003
:1004D000CF90BF90AF909F908F900895CF93DF9370
:1004E00000D000D000D0CDB7DEB740E060E080E0C3
:1004F0000E94A60440E061E080E00E94A60440E083
:1005000062E080E00E94A60440E063E080E00E9498
:10051000A60441E060E082E00E94A60440E061E0C1
:1005200082E00E94A6040E9414040E94520180E806
:1005300095E20E946205C12CD12C76011E821D829B
:1005400010E007C01092AA000E94A1009E838D8334
:100550001F5F1931B8F38D819E810E94BB006983B2
:100560007A838B839C830E9458004B015C010E941C
:100570006F002B013C019B01AC01C501B4010E943D
:100580002E089B01AC0169817A818B819C810E943C
:100590002E0823E333E343E550E40E942E0820E0D5
:1005A00030E64AE657E40E9454069B01AC01C701BD
:1005B000B6010E94C7056B017C018FE690E00E94A6
:1005C000A301C501B4010E94F90186E50E9424013E
:1005D00020E014C080E49CE99093AC008093AB00D1
:1005E00006C0000001979093AC008093AB0080910F
:1005F000AB009091AC000097A1F72F5F2A3050F329
:1006000061E080E00E9493018AE790E00E94A301EC
:10061000C301B2010E94F90181E40E94240120E09B
:1006200014C080E49CE99093AC008093AB0006C0BA
:10063000000001979093AC008093AB008091AB00D9
:100640009091AC000097A1F72F5F2A3050F30E94E1
:100650004E0185E890E00E94A30161E080E00E94E5
:10066000930120E030E048EC52E469817A818B818B
:100670009C810E942E080E9433060E94C606CB0170
:100680000E94CC0185E20E94240120E014C080E495
:100690009CE99093AC008093AB0006C000000197EA
:1006A0009093AC008093AB008091AB009091AC0034
:1006B0000097A1F72F5F2A3050F30E944E0183E983
:1006C00090E00E94A30161E080E00E949301C701D5
:1006D000B6010E94F90182EA90E00E94A30120E0A5
:1006E00014C080E49CE99093AC008093AB0006C0FA
:1006F000000001979093AC008093AB008091AB0019
:100700009091AC000097A1F72F5F2A3050F320E0C2
:1007100014C080E49CE99093AC008093AB0006C0C9
:10072000000001979093AC008093AB008091AB00E8
:100730009091AC000097A1F72F5F2A3050F30E94F0
:100740004E01A99BFDCEC501B4010E94CD06862FA6
:100750000E94BE0585E392E89093AC008093AB00C5
:1007600006C0000001979093AC008093AB0080918D
:10077000AB009091AC000097A1F7C301B2010E94B9
:10078000CD06862F0E94BE0585E392E89093AC00CB
:100790008093AB0006C0000001979093AC0080935B
:1007A000AB008091AB009091AC000097A1F7C7011E
:1007B000B6010E94CD06862F0E94BE0585E392E811
:1007C0009093AC008093AB0006C00000019790931B
:1007D000AC008093AB008091AB009091AC0000978F
:1007E000A1F70E94C20525E332E83093AC002093C4
:1007F000AB0007C00000215031093093AC002093BA
:10080000AB002091AB003091AC002115310591F780
:10081000813021F485B38E7F85BB92CE811190CE3D
:1008200085B3816085BB8CCE87B1806487B986B182
:10083000846886B9089597B18F70982B97B986B15F
:10084000806486B9349BFECF86B1806186B934B1AD
:1008500085B190E0982F882727B1207F27B9832B77
:1008600008951F920F920FB60F9211242F933F936A
:100870004F935F936F937F938F939F93AF93BF93A8
:10088000EF93FF93E091AF00F091B0000995FF91D5
:10089000EF91BF91AF919F918F917F916F915F91F8
:1008A0004F913F912F910F900FBE0F901F90189571
:1008B0001F920F920FB60F9211242F933F934F93D5
:1008C0005F936F937F938F939F93AF93BF93EF93B8
:1008D000FF93E091B100F091B2000995FF91EF9183
:1008E000BF91AF919F918F917F916F915F914F9148
:1008F0003F912F910F900FBE0F901F9018951F9250
:100900000F920FB60F9211242F933F934F935F9343
:100910006F937F938F939F93AF93BF93EF93FF93C7
:10092000E091AD00F091AE000995FF91EF91BF917C
:10093000AF919F918F917F916F915F914F913F9177
:100940002F910F900FBE0F901F901895843008F0D4
:1009500075C0683008F072C04130B9F5813091F04F
:1009600028F08230D9F0833029F12FC09AB321E0EA
:1009700030E0062E02C0220F331F0A94E2F7292B23
:100980002ABB23C097B321E030E0062E02C0220F1D
:10099000331F0A94E2F7292B27BB17C094B321E039
:1009A00030E0062E02C0220F331F0A94E2F7292BF3
:1009B00024BB0BC091B321E030E0062E02C0220F11
:1009C000331F0A94E2F7292B21BB411137C0813034
:1009D00091F028F08230D9F0833029F108952AB3BC
:1009E00081E090E002C0880F991F6A95E2F7809538
:1009F00082238ABB089527B381E090E002C0880F6C
:100A0000991F6A95E2F78095822387BB089524B3E6
:100A100081E090E002C0880F991F6A95E2F7809507
:100A2000822384BB089521B381E090E002C0880F47
:100A3000991F6A95E2F78095822381BB08958430DF
:100A400070F5683070F5813079F028F08230A9F0C7
:100A50008330E1F028C089B390E002C09595879576
:100A60006A95E2F78170089586B390E002C095958B
:100A700087956A95E2F78170089583B390E002C08C
:100A8000959587956A95E2F78170089580B390E017
:100A900002C0959587956A95E2F78170089580E088
:100AA000089580E0089580E008959FB790689FBF03
:100AB00099B7916099BF93B7987F93BF93B7892BEC
:100AC00083BF0895AF92BF92CF92DF92EF92FF92D1
:100AD0000F931F93CF93DF9320B52F7720BD20B5C1
:100AE000206820BD20B52F7B20BD282F392F40E066
:100AF00050E060E070E080E090E004E00E94C10916
:100B0000A22EB32EC42ED52EE62EF72E082F192F87
:100B100020E032E14AE750E060E070E080E090E001
:100B20000E94EC08022F132F0150110980B5806834
:100B300080BD10BD09B980B5826080BD80B584607C
:100B400080BD8AB18B7F8AB980B58F7E80BD80B52C
:100B50008F7D80BD80B5886080BD8AB188608AB98C
:100B60008AB180618AB9DF91CF911F910F91FF9077
:100B7000EF90DF90CF90BF90AF9008955D9BFECF38
:100B80008CB908955F9BFECF8CB108955058BB2758
:100B9000AA270E94DE050C94C8070E948F0738F030
:100BA0000E94960720F039F49F3F19F426F40C9424
:100BB0008C070EF4E095E7FB0C945D07E92F0E948B
:100BC000ED0758F3BA17620773078407950720F0FB
:100BD00079F4A6F50C9427080EF4E0950B2EBA2FA5
:100BE000A02D0B01B90190010C01CA01A001112433
:100BF000FF27591B99F0593F50F4503E68F11A16DF
:100C0000F040A22F232F342F4427585FF3CF46956F
:100C100037952795A795F0405395C9F77EF41F1691
:100C2000BA0B620B730B840BBAF09150A1F0FF0F5B
:100C3000BB1F661F771F881FC2F70EC0BA0F621F47
:100C4000731F841F48F4879577956795B795F79537
:100C50009E3F08F0B0CF9395880F08F09927EE0FCC
:100C60009795879508950E940F0890F09F3748F454
:100C7000911116F40C94280860E070E080E89FE37E
:100C8000089526F01B16611D711D811D0C946307CC
:100C90000C947E070E94390708F481E008950E94B1
:100CA0009F07E3950C94D9070E9468060C94C80727
:100CB0000E94960758F00E948F0740F029F45F3F8A
:100CC00029F00C945D0751110C9428080C948C07A2
:100CD0000E94ED0768F39923B1F3552391F3951B17
:100CE000550BBB27AA2762177307840738F09F5F4D
:100CF0005F4F220F331F441FAA1FA9F335D00E2EBA
:100D00003AF0E0E832D091505040E695001CCAF726
:100D10002BD0FE2F29D0660F771F881FBB1F2617E9
:100D200037074807AB07B0E809F0BB0B802DBF01C0
:100D3000FF2793585F4F3AF09E3F510578F00C948F
:100D40005D070C9428085F3FE4F3983ED4F3869542
:100D500077956795B795F7959F5FC9F7880F911DB0
:100D60009695879597F90895E1E0660F771F881F9C
:100D7000BB1F621773078407BA0720F0621B730B4F
:100D8000840BBA0BEE1F88F7E09508950E94CD06FC
:100D90006894B1110C94280808950E94F50788F012
:100DA0009F5798F0B92F9927B751B0F0E1F0660F2F
:100DB000771F881F991F1AF0BA95C9F714C0B13070
:100DC00091F00E942708B1E008950C942708672F3E
:100DD000782F8827B85F39F0B93FCCF3869577959F
:100DE0006795B395D9F73EF4909580957095619588
:100DF0007F4F8F4F9F4F0895E89409C097FB3EF4B3
:100E000090958095709561957F4F8F4F9F4F992357
:100E1000A9F0F92F96E9BB279395F69587957795D5
:100E20006795B795F111F8CFFAF4BB0F11F460FF95
:100E30001BC06F5F7F4F8F4F9F4F16C0882311F0ED
:100E400096E911C0772321F09EE8872F762F05C001
:100E5000662371F096E8862F70E060E02AF09A959C
:100E6000660F771F881FDAF7880F9695879597F991
:100E70000895990F0008550FAA0BE0E8FEEF16162B
:100E80001706E807F907C0F012161306E407F5077E
:100E900098F0621B730B840B950B39F40A2661F0F2
:100EA000232B242B252B21F408950A2609F4A14095
:100EB000A6958FEF811D811D089597F99F6780E8A2
:100EC00070E060E00895882371F4772321F0985052
:100ED000872B762F07C0662311F499270DC09051F8
:100EE000862B70E060E02AF09A95660F771F881FC6
:100EF000DAF7880F9695879597F908959F3F31F017
:100F0000915020F4879577956795B795880F911D37
:100F10009695879597F908959FEF80EC08950024A2
:100F20000A941616170618060906089500240A944E
:100F3000121613061406050608950C948C070E94D9
:100F4000F507D8F3E894E0E0BB279F57F0F02AEDCF
:100F50003FE049EC06C0EE0FBB0F661F771F881FEE
:100F600028F0B23A62077307840728F0B25A620B7E
:100F7000730B840BE3959A9572F7803830F49A9549
:100F8000BB0F661F771F881FD2F790480C9480070D
:100F9000092E0394000C11F4882352F0BB0F40F487
:100FA000BF2B11F460FF04C06F5F7F4F8F4F9F4FC7
:100FB0000895EF93E0FF07C0A2EA2AED3FE049EC75
:100FC0005FEB0E94DE050E94C8070F90039401FCAE
:100FD0009058E4E5F0E00C949B0857FD9058440FBE
:100FE000551F59F05F3F71F04795880F97FB991F88
:100FF00061F09F3F79F08795089512161306140645
:10100000551FF2CF4695F1DF08C0161617061806D1
:10101000991FF1CF869571056105089408950E9486
:10102000F507A0F0BEE7B91788F4BB279F3860F436
:101030001616B11D672F782F8827985FF7CF8695F2
:1010400077956795B11D93959639C8F30895E894FF
:10105000BB2766277727CB0197F908950E9441089F
:101060000C94C8070E948F0738F00E94960720F062
:10107000952311F00C945D070C948C0711240C94AB
:1010800028080E94ED0770F3959FC1F3950F50E07B
:10109000551F629FF001729FBB27F00DB11D639F2A
:1010A000AA27F00DB11DAA1F649F6627B00DA11DD0
:1010B000661F829F2227B00DA11D621F739FB00D76
:1010C000A11D621F839FA00D611D221F749F3327E6
:1010D000A00D611D231F849F600D211D822F762F7F
:1010E0006A2F11249F5750409AF0F1F088234AF05C
:1010F000EE0FFF1FBB1F661F771F881F91505040C8
:10110000A9F79E3F510580F00C945D070C942808C8
:101110005F3FE4F3983ED4F3869577956795B7954E
:10112000F795E7959F5FC1F7FE2B880F911D969568
:10113000879597F908959F938F937F936F93FF936C
:10114000EF939B01AC010E942E08EF91FF910E944A
:10115000AF082F913F914F915F910C942E08DF9330
:10116000CF931F930F93FF92EF92DF927B018C013D
:10117000689406C0DA2EEF010E944108FE01E8944F
:10118000A5912591359145915591A6F3EF010E94C6
:10119000DE05FE019701A801DA9469F7DF90EF9070
:1011A000FF900F911F91CF91DF91089597FB072E2C
:1011B00016F4009407D077FD09D00E94DA0907FCE5
:1011C00005D03EF4909581959F4F08957095619557
:1011D0007F4F0895689401C0E894F92FF12B12F025
:1011E0000C941E09A0E0B0E0E8EFF8E00C94900940
:1011F000092E059422F40E947A09112392F4F0E852
:101200000F26FFEFE094F09400951095B094C094F1
:10121000D094A194BF0ACF0ADF0AEF0AFF0A0F0B8E
:101220001F0B0E94290907FC0E947A09CDB7DEB77F
:10123000ECE00C94AC09689401C0E8948F929F9202
:10124000CF93DF930E942909DF91CF919F908F90D8
:10125000089588249924F401E401B0E49F93AA2717
:101260009A158B049C04ED05FE05CF05D007A10758
:1012700098F4AD2FDC2FCF2FFE2FE92D982C892E3F
:10128000982F872F762F652F542F432F322F222709
:10129000B85031F7BF9127C01B2EBF91BB27220F3B
:1012A000331F441F551F661F771F881F991F881CF7
:1012B000991CEE1FFF1FCC1FDD1FAA1FBB1F8A1426
:1012C0009B04EC05FD05CE05DF05A007B10748F03E
:1012D0008A189B08EC09FD09CE09DF09A00BB10BA8
:1012E00021601A94E1F62EF49401AF01BE01CD0104
:1012F000000C089560957095809590953095409577
:10130000509521953F4F4F4F5F4F6F4F7F4F8F4FFE
:101310009F4F08952F923F924F925F926F927F92CC
:101320008F929F92AF92BF92CF92DF92EF92FF92F5
:101330000F931F93CF93DF93CDB7DEB7CA1BDB0BA1
:101340000FB6F894DEBF0FBECDBF09942A88398846
:1013500048885F846E847D848C849B84AA84B9844D
:10136000C884DF80EE80FD800C811B81AA81B98159
:10137000CE0FD11D0FB6F894DEBF0FBECDBFED016D
:1013800008950F93083090F0982F872F762F652FB0
:10139000542F432F322F22270850F4CF220F331F10
:1013A000441F551F661F771F881F991F0A95B2F7A4
:1013B0000F910895AA1BBB1B51E107C0AA1FBB1FB9
:1013C000A617B70710F0A61BB70B881F991F5A95D1
:1013D000A9F780959095BC01CD01089597FF03C0B2
:1013E0009195819591090895AEE0B0E0EAEFF9E0BA
:1013F0000C9498090D891E8986E08C831A830983D1
:101400008FEF9FE79E838D83AE01475E5F4F6F89AD
:10141000788DCE0101960E94160AEF81F885E00FC3
:10142000F11F10822E96E4E00C94B409ABE0B0E01A
:10143000ECE1FAE00C948A096C017B018A01FC0161
:1014400017821682838181FFCCC1CE0101963C01B7
:10145000F6019381F70193FD859193FF81917F01BF
:10146000882309F4BAC1853239F493FD859193FF3D
:1014700081917F01853229F4B60190E00E940D0C24
:10148000E7CF912C212C312CFFE1F315D8F08B32D2
:1014900079F038F4803279F08332A1F4232D206181
:1014A0001DC08D3261F0803369F4232D216016C098
:1014B000832D8260382EE32DE4603E2E2AC0F32D6A
:1014C000F8601DC037FC2DC020ED280F2A3040F0F9
:1014D0008E32B9F436FC81C1232D2064322E19C01E
:1014E00036FE06C08AE0989E200D1124922E11C06F
:1014F000EAE02E9E200D1124222EF32DF0623F2EC5
:1015000008C08C3621F4832D8068382E02C08836BE
:1015100041F4F70193FD859193FF81917F01811142
:10152000B3CF982F9F7D9554933028F40C5F1F4FB5
:101530009FE399830DC0833631F0833771F0833593
:1015400009F059C021C0F801808189830E5F1F4FC7
:1015500088248394912C530113C02801F2E04F0E8C
:10156000511CF801A080B18036FE03C0692D70E0E7
:1015700002C06FEF7FEFC5010E94020C4C01820197
:10158000F32DFF773F2E16C0280122E0420E511C9A
:10159000F801A080B18036FE03C0692D70E002C062
:1015A0006FEF7FEFC5010E94F70B4C01F32DF06840
:1015B0003F2E820133FC1BC0822D90E088169906D5
:1015C000B0F4B60180E290E00E940D0C2A94F4CFB2
:1015D000F50137FC859137FE81915F01B60190E0FE
:1015E0000E940D0C21102A9421E0821A9108811486
:1015F000910471F7E8C0843611F0893641F5F8019D
:1016000037FE07C060817181828193810C5F1F4F1B
:1016100008C060817181072E000C880B990B0E5F4A
:101620001F4FF32DFF763F2E97FF09C090958095B1
:10163000709561957F4F8F4F9F4FF0683F2E2AE046
:1016400030E0A3010E94490C882E861845C08537DA
:1016500031F4232D2F7EB22E2AE030E025C0932DC9
:10166000997FB92E8F36C1F018F4883579F0B5C05E
:10167000803719F0883721F0B0C0E92FE061BE2E25
:10168000B4FE0DC0FB2DF460BF2E09C034FE0AC0AD
:10169000292F2660B22E06C028E030E005C020E1E8
:1016A00030E002C020E132E0F801B7FE07C06081FF
:1016B0007181828193810C5F1F4F06C060817181AF
:1016C00080E090E00E5F1F4FA3010E94490C882E1E
:1016D0008618FB2DFF773F2E36FE0DC0232D2E7F63
:1016E000A22E891458F434FE0BC032FC09C0832D9D
:1016F0008E7EA82E05C0B82CA32C03C0B82C01C028
:10170000B92CA4FE0FC0FE01E80DF11D80818033CD
:1017100021F49A2D997EA92E09C0A2FE06C0B39489
:10172000B39404C08A2D867809F0B394A3FC11C049
:10173000A0FE06C0B21488F4280C922C9B180EC090
:10174000B21460F4B60180E290E00E940D0CB394F4
:10175000F7CFB21418F42B1802C0982C212CA4FE39
:1017600010C0B60180E390E00E940D0CA2FE17C0ED
:10177000A1FC03C088E790E002C088E590E0B601D4
:101780000CC08A2D867859F0A1FE02C08BE201C000
:1017900080E2A7FC8DE2B60190E00E940D0C891456
:1017A00038F4B60180E390E00E940D0C9A94F7CFD4
:1017B0008A94F301E80DF11D8081B60190E00E944A
:1017C0000D0C8110F5CF222009F442CEB60180E243
:1017D00090E00E940D0C2A94F6CFF6018681978145
:1017E00002C08FEF9FEF2B96E2E10C94A609FC015B
:1017F0000590615070400110D8F7809590958E0F3C
:101800009F1F0895FC016150704001900110D8F7AE
:10181000809590958E0F9F1F08950F931F93CF93E0
:10182000DF93FB01238121FD03C08FEF9FEF2CC0CD
:1018300022FF16C046815781248135814217530704
:1018400044F4A081B1819D012F5F3F4F31832083FC
:101850008C93268137812F5F3F4F3783268314C0B7
:101860008B01EC01FB010084F185E02D0995892BAA
:10187000E1F6D80116968D919C91179701961796CF
:101880009C938E931697CE01DF91CF911F910F916C
:101890000895FA01AA27283051F1203181F1E89406
:1018A0006F936E7F6E5F7F4F8F4F9F4FAF4FB1E053
:1018B0003ED0B4E03CD0670F781F891F9A1FA11D4E
:1018C000680F791F8A1F911DA11D6A0F711D811D4F
:1018D000911DA11D20D009F468943F912AE0269F14
:1018E00011243019305D3193DEF6CF010895462F73
:1018F0004770405D4193B3E00FD0C9F7F6CF462F54
:101900004F70405D4A3318F0495D31FD40524193BC
:1019100002D0A9F7EACFB4E0A69597958795779579
:101920006795BA95C9F700976105710508959B0100
:10193000AC010A2E06945795479537952795BA9589
:10194000C9F7620F731F841F951FA01D0895F89497
:02195000FFCFC7
:101952002564002D00257325642E2530346400563D
:101962006F6C74616765203A200043757272656E10
:1019720074203A200050462070657263656E74616F
:10198200676500436F6E73756D656420506F776590
:081992007200204B57480000D1
:00000001FF
