:1000000021C03BC03AC039C038C037C036C035C047
:1000100034C09AC032C031C030C02FC02EC02DC0F5
:100020002CC02BC02AC005A84CCDB2D44EB938364E
:10003000A9020C50B9918688083CA6AAAA2ABE003B
:100040000000803F11241FBECFE5D4E0DEBFCDBF4E
:1000500010E0A0E6B0E0E2E6F2E102C005900D9209
:10006000A83CB107D9F720E0A8ECB0E001C01D9290
:10007000AD3CB207E1F7B5D1F2C8C2CFD2D281E030
:10008000D7D2BC0180E090E080D42AE038E240EA98
:100090005BE366D520E030E040E352E461D549D42B
:1000A000CB010895BED280E0C3D2BC0180E090E0D5
:1000B0006CD42AE038E240EA5BE352D59B01AC0104
:1000C00060D337D4CB01089565E081E021D381115D
:1000D000FBCF12BE81E047D381E083BF64E081E0C3
:1000E00017D38111FBCF13BE82B790E09093C90064
:1000F0008093C80008952091CA003FEF239F800D90
:10010000911D1124BC016F5F7F4F80E090E03DD4D2
:1001100020E034E244E759E49FD320E030E040E7B8
:1001200052E41ED520E030E044EB53E419D527EA31
:1001300037EE4EE85CE314D529EC36E74EEB5DE391
:100140001FD387D39F7708951F920F920FB60F92F8
:1001500011248F938091CA008F5F8093CA008F9182
:100160000F900FBE0F901F90189588B3877F88BBA4
:100170000000000082E896E09093CC008093CB00D2
:1001800006C0000001979093CC008093CB00809133
:10019000CB009091CC000097A1F788B3886088BB12
:1001A0000895CF93C82F82B38F709C2F907F892B97
:1001B00082BB88B3897F88BBD8DF22B330E1C39F7D
:1001C000C0011124922F9F70892B82BB88B3897F35
:1001D00088BBCBDFCF910895CF93DF931F92CDB72C
:1001E000DEB7898392B389819F70807F892B82BB20
:1001F00088B3826088BB88B38B7F88BBB6DF22B3AD
:10020000998130E1939FC0011124922F9F70892B17
:1002100082BB88B3826088BB88B38B7F88BBA5DF35
:100220000F90DF91CF91089581E0BBDF08958AE9B7
:1002300092E09093CC008093CB0006C00000019721
:100240009093CC008093CB008091CB009091CC0018
:100250000097A1F787B38E6087BB88B3817F88BB87
:1002600081B3806F81BB84EF91E09093CC00809349
:10027000CB0006C0000001979093CC008093CB0088
:100280008091CB009091CC000097A1F7CDDF82E068
:1002900088DF88E286DF86E084DF80E882DF8FE027
:1002A00080DF0895611105C0803148F4805879DFFE
:1002B0000895613021F4803110F4805472DF089584
:1002C0000F931F93CF93DF938C01C0E0D0E014C055
:1002D0000F5F1F4F81DF2196C031D10521F461E00E
:1002E00080E0E0DF09C0C032D10534F09DDF60E07E
:1002F00080E0D8DFC0E0D0E0F80180818111E8CF54
:10030000DF91CF911F910F9108958F929F92AF929D
:10031000BF92CF92DF92EF92FF920F931F93CF93F2
:10032000DF93CDB7DEB760970FB6F894DEBF0FBE90
:10033000CDBF6B017C0120E030E0A90186D288238B
:100340001CF403E610E002C008EA10E020E030E010
:10035000A901C701B60179D2882324F4F7FAF094F1
:10036000F7F8F094C701B601DFD24B015C01072E0C
:10037000000C880B990B0BD39B01AC01C701B60194
:10038000FFD120E030E44CE156E4EAD3CDD27F93B4
:100390006F939F928F921F930F9385E690E09F93A8
:1003A0008F938E010F5F1F4F1F930F9380D4C8014F
:1003B00087DF0FB6F894DEBF0FBECDBF60960FB6D5
:1003C000F894DEBF0FBECDBFDF91CF911F910F918B
:1003D000FF90EF90DF90CF90BF90AF909F908F9065
:1003E0000895CF93DF93CDB7DEB72C970FB6F8946F
:1003F000DEBF0FBECDBF40E060E081E02CD140E029
:1004000061E081E028D140E064E081E024D140E077
:1004100065E081E020D10BDF04D18FE690E050DF72
:1004200085E29BE59093CC008093CB0006C0000052
:1004300001979093CC008093CB008091CB0090915A
:10044000CC000097A1F781E0ACDE412C512C3201A9
:100450007301620184E990E033DF10DEBC0180E0CB
:1004600090E093D269837A838B839C834EDF86E509
:10047000B3DE61E080E016DF8AE990E021DF12DE82
:10048000BC0180E090E081D26D837E838F8398876A
:100490003CDF81E4A1DE85E194E39093CC0080937E
:1004A000CB0006C0000001979093CC008093CB0056
:1004B0008091CB009091CC000097A1F781E071DE94
:1004C00019860CC01092CA00FFDDBC0180E090E0EC
:1004D0005CD26B017C0189858F5F89878985893131
:1004E00088F3C701B60125D2CB0105DE4B015C01C3
:1004F00083EA90E0E5DEC501B40107DF61E080E05A
:10050000D1DE20E030E048EC52E4C501B40128D34C
:1005100069877A878B879C8789EA90E0D1DE698535
:100520007A858B859C85F1DE85E256DE85E194E354
:100530009093CC008093CB0006C00000019790936D
:10054000CC008093CB008091CB009091CC000097A1
:10055000A1F781E026DE2D813E814F81588569819A
:100560007A818B819C81FCD223E333E343E550E421
:10057000F7D220E030E04AE754E46ED120E030E0EA
:1005800041E655E469D19B01AC01C301B201F9D048
:100590002B013C018EEB90E093DE61E080E082DE97
:1005A000C301B201B2DE81EB90E08ADE85E194E323
:1005B0009093CC008093CB0006C0000001979093ED
:1005C000CC008093CB008091CB009091CC00009721
:1005D000A1F781E0E6DDA3019201C501B401C0D21B
:1005E0004B015C0185EB90E06BDEC501B4018DDE53
:1005F00081EB90E065DE85E194E39093CC008093FD
:10060000CB0006C0000001979093CC008093CB00F4
:100610008091CB009091CC000097A1F781E0C1DDE3
:1006200019CF87B1806487B986B1846886B9089587
:1006300097B18F70982B97B986B1806486B9349B37
:10064000FECF86B1806186B924B185B190E0982F44
:100650008827822B0895833008F059C0683008F04D
:1006600056C0413049F5813081F018F08230C9F030
:1006700023C097B321E030E0062E02C0220F331FC3
:100680000A94E2F7292B27BB17C094B321E030E08E
:10069000062E02C0220F331F0A94E2F7292B24BB37
:1006A0000BC091B321E030E0062E02C0220F331FB1
:1006B0000A94E2F7292B21BB411129C0813081F036
:1006C00018F08230C9F0089527B381E090E002C0AD
:1006D000880F991F6A95E2F78095822387BB08955A
:1006E00024B381E090E002C0880F991F6A95E2F779
:1006F0008095822384BB089521B381E090E002C0FD
:10070000880F991F6A95E2F78095822381BB08952F
:10071000833018F5683018F5813069F018F08230B0
:1007200099F01FC086B390E002C0959587956A95B1
:10073000E2F78170089583B390E002C095958795A4
:100740006A95E2F78170089580B390E002C09595B4
:1007500087956A95E2F78170089580E0089580E0BA
:10076000089580E008959FB790689FBF99B7916002
:1007700099BF93B7987F93BF93B7892B83BF089591
:100780005058BB27AA270ED0A0C169D130F06ED136
:1007900020F031F49F3F11F41EF45EC10EF4E09599
:1007A000E7FB54C1E92FB3D180F3BA17620773078F
:1007B0008407950718F071F49EF5CBC10EF4E0950F
:1007C0000B2EBA2FA02D0B01B90190010C01CA010B
:1007D000A0011124FF27591B99F0593F50F4503EB6
:1007E00068F11A16F040A22F232F342F4427585FA8
:1007F000F3CF469537952795A795F0405395C9F7C0
:100800007EF41F16BA0B620B730B840BBAF0915077
:10081000A1F0FF0FBB1F661F771F881FC2F70EC016
:10082000BA0F621F731F841F48F4879577956795E9
:10083000B795F7959E3F08F0B3CF9395880F08F0D2
:100840009927EE0F979587950895DCD008F481E0FD
:10085000089514D1E3954AC10CD037C107D140F0B7
:10086000FED030F021F45F3F19F0F0C0511172C199
:10087000F3C04DD198F39923C9F35523B1F3951BD8
:10088000550BBB27AA2762177307840738F09F5FB1
:100890005F4F220F331F441FAA1FA9F333D00E2E20
:1008A0003AF0E0E830D091505040E695001CCAF78D
:1008B00029D0FE2F27D0660F771F881FBB1F261752
:1008C00037074807AB07B0E809F0BB0B802DBF0125
:1008D000FF2793585F4F2AF09E3F510568F0B6C03E
:1008E00039C15F3FECF3983EDCF3869577956795C9
:1008F000B795F7959F5FC9F7880F911D96958795D6
:1009000097F90895E1E0660F771F881FBB1F6217F4
:1009100073078407BA0720F0621B730B840BBA0BB2
:10092000EE1F88F7E095089504D06894B11112C1C4
:100930000895F5D088F09F5790F0B92F9927B751B7
:10094000A0F0D1F0660F771F881F991F1AF0BA9593
:10095000C9F712C0B13081F0FCD0B1E00895F9C000
:10096000672F782F8827B85F39F0B93FCCF3869589
:1009700077956795B395D9F73EF4909580957095E6
:1009800061957F4F8F4F9F4F0895E89409C097FB63
:100990003EF490958095709561957F4F8F4F9F4F56
:1009A0009923A9F0F92F96E9BB279395F69587959A
:1009B00077956795B795F111F8CFFAF4BB0F11F45D
:1009C00060FF1BC06F5F7F4F8F4F9F4F16C0882304
:1009D00011F096E911C0772321F09EE8872F762F3A
:1009E00005C0662371F096E8862F70E060E02AF07B
:1009F0009A95660F771F881FDAF7880F9695879567
:100A000097F90895990F0008550FAA0BE0E8FEEF3B
:100A100016161706E807F907C0F012161306E407C2
:100A2000F50798F0621B730B840B950B39F40A26BB
:100A300061F0232B242B252B21F408950A2609F499
:100A4000A140A6958FEF811D811D089597F99F679D
:100A500080E870E060E008959FEF80EC0895002446
:100A60000A941616170618060906089500240A9413
:100A700012161306140605060895EECF50D0E8F3BB
:100A8000E894E0E0BB279F57F0F02AED3FE049EC07
:100A900006C0EE0FBB0F661F771F881F28F0B23A03
:100AA00062077307840728F0B25A620B730B840B3A
:100AB000E3959A9572F7803830F49A95BB0F661FCC
:100AC000771F881FD2F79048B0C0092E0394000CFE
:100AD00011F4882352F0BB0F40F4BF2B11F460FFD8
:100AE00004C06F5F7F4F8F4F9F4F0895EF93E0FFDC
:100AF00006C0A2EA2AED3FE049EC5FEB53DEE5DFFA
:100B00000F90039401FC9058E6E2F0E09AC057FD84
:100B10009058440F551F59F05F3F71F04795880F6B
:100B200097FB991F61F09F3F79F087950895121602
:100B300013061406551FF2CF4695F1DF08C01616AE
:100B400017061806991FF1CF86957105610508945F
:100B50000895E894BB2766277727CB0197F9089576
:100B60000BD0B3CF7CDF28F081DF18F0952309F09C
:100B70006DCF72CF1124EECFCADFA0F3959FD1F3D2
:100B8000950F50E0551F629FF001729FBB27F00D3B
:100B9000B11D639FAA27F00DB11DAA1F649F662790
:100BA000B00DA11D661F829F2227B00DA11D621FDF
:100BB000739FB00DA11D621F839FA00D611D221F99
:100BC000749F3327A00D611D231F849F600D211D7D
:100BD000822F762F6A2F11249F5750408AF0E1F020
:100BE00088234AF0EE0FFF1FBB1F661F771F881F69
:100BF00091505040A9F79E3F510570F027CFAACFE2
:100C00005F3FECF3983EDCF3869577956795B79553
:100C1000F795E7959F5FC1F7FE2B880F911D96957D
:100C2000879597F908959F3F31F0915020F487956B
:100C300077956795B795880F911D9695879597F944
:100C400008959F938F937F936F93FF93EF939B01EF
:100C5000AC0186DFEF91FF9105D02F913F914F912D
:100C60005F917ECFDF93CF931F930F93FF92EF920D
:100C7000DF927B018C01689405C0DA2EEF017CDFE6
:100C8000FE01E894A5912591359145915591AEF3DA
:100C9000EF0188DDFE019701A801DA9479F7DF9072
:100CA000EF90FF900F911F91CF91DF910895AEE0EB
:100CB000B0E0ECE5F6E0AAC20D891E8986E08C83DF
:100CC0001A8309838FEF9FE79E838D83AE01475E72
:100CD0005F4F6F89788DCE01019608D0EF81F8853E
:100CE000E00FF11F10822E96E4E0ACC2ABE0B0E062
:100CF000EBE7F6E07DC26C017B018A01FC01178203
:100D00001682838181FFBFC1CE0101963C01F601AD
:100D10009381F70193FD859193FF81917F01882352
:100D200009F4ADC1853239F493FD859193FF81912A
:100D30007F01853221F4B60190E0C0D1E8CF912C3B
:100D4000212C312CFFE1F315D8F08B3279F038F4F7
:100D5000803279F08332A1F4232D20611DC08D32C1
:100D600061F0803369F4232D216016C0832D8260E9
:100D7000382EE32DE4603E2E2AC0F32DF8601DC00E
:100D800037FC2DC020ED280F2A3040F08E32B9F408
:100D900036FC75C1232D2064322E19C036FE06C0E4
:100DA0008AE0989E200D1124922E11C0EAE02E9E1A
:100DB000200D1124222EF32DF0623F2E08C08C3618
:100DC00021F4832D8068382E02C0883641F4F70163
:100DD00093FD859193FF81917F018111B3CF982F6E
:100DE0009F7D9554933028F40C5F1F4F9FE39983A8
:100DF0000DC0833631F0833771F0833509F055C06B
:100E000020C0F801808189830E5F1F4F882483945E
:100E1000912C530112C02801F2E04F0E511CF80131
:100E2000A080B18036FE03C0692D70E002C06FEF74
:100E30007FEFC50138D14C018201F32DFF773F2EA2
:100E400015C0280122E0420E511CF801A080B1809B
:100E500036FE03C0692D70E002C06FEF7FEFC50161
:100E600017D14C01F32DF0683F2E820133FC19C0DD
:100E7000822D90E088169906A0F4B60180E290E0F9
:100E80001DD12A94F5CFF50137FC859137FE81916C
:100E90005F01B60190E012D121102A9421E0821A5C
:100EA00091088114910479F7E1C0843611F08936F4
:100EB00039F5F80137FE07C0608171818281938125
:100EC0000C5F1F4F08C060817181072E000C880BDA
:100ED000990B0E5F1F4FF32DFF763F2E97FF09C032
:100EE00090958095709561957F4F8F4F9F4FF068DB
:100EF0003F2E2AE030E0A3011DD1882E861844C081
:100F0000853731F4232D2F7EB22E2AE030E025C024
:100F1000932D997FB92E8F36C1F018F4883579F06A
:100F2000AEC0803719F0883721F0A9C0E92FE06101
:100F3000BE2EB4FE0DC0FB2DF460BF2E09C034FEE2
:100F40000AC0292F2660B22E06C028E030E005C076
:100F500020E130E002C020E132E0F801B7FE07C036
:100F600060817181828193810C5F1F4F06C0608117
:100F7000718180E090E00E5F1F4FA301DBD0882ECF
:100F80008618FB2DFF773F2E36FE0DC0232D2E7FBA
:100F9000A22E891458F434FE0BC032FC09C0832DF4
:100FA0008E7EA82E05C0B82CA32C03C0B82C01C07F
:100FB000B92CA4FE0FC0FE01E80DF11D8081803325
:100FC00021F49A2D997EA92E09C0A2FE06C0B394E1
:100FD000B39404C08A2D867809F0B394A3FC10C0A2
:100FE000A0FE06C0B21480F4280C922C9B180DC0F1
:100FF000B21458F4B60180E290E060D0B394F8CF18
:10100000B21418F42B1802C0982C212CA4FE0FC087
:10101000B60180E390E052D0A2FE16C0A1FC03C04E
:1010200088E790E002C088E590E0B6010CC08A2D08
:10103000867851F0A1FE02C08BE201C080E2A7FCDD
:101040008DE2B60190E03AD0891430F4B60180E325
:1010500090E034D09A94F8CF8A94F301E80DF11D12
:101060008081B60190E02AD08110F6CF222009F4C9
:101070004ECEB60180E290E021D02A94F7CFF6015F
:101080008681978102C08FEF9FEF2B96E2E1CCC063
:10109000FC010590615070400110D8F78095909543
:1010A0008E0F9F1F0895FC01615070400190011048
:1010B000D8F7809590958E0F9F1F08950F931F93DB
:1010C000CF93DF93FB01238121FD03C08FEF9FEFBF
:1010D0002CC022FF16C046815781248135814217DA
:1010E000530744F4A081B1819D012F5F3F4F3183AD
:1010F00020838C93268137812F5F3F4F3783268350
:1011000014C08B01EC01FB010084F185E02D0995F1
:10111000892BE1F6D80116968D919C91179701962F
:1011200017969C938E931697CE01DF91CF911F91C6
:101130000F910895FA01AA27283051F1203181F149
:10114000E8946F936E7F6E5F7F4F8F4F9F4FAF4FCF
:10115000B1E03ED0B4E03CD0670F781F891F9A1FE2
:10116000A11D680F791F8A1F911DA11D6A0F711D96
:10117000811D911DA11D20D009F468943F912AE0A2
:10118000269F11243019305D3193DEF6CF0108958A
:10119000462F4770405D4193B3E00FD0C9F7F6CFBB
:1011A000462F4F70405D4A3318F0495D31FD405283
:1011B000419302D0A9F7EACFB4E0A6959795879519
:1011C00077956795BA95C9F70097610571050895F8
:1011D0009B01AC010A2E06945795479537952795A4
:1011E000BA95C9F7620F731F841F951FA01D08953C
:1011F0002F923F924F925F926F927F928F929F9227
:10120000AF92BF92CF92DF92EF92FF920F931F9314
:10121000CF93DF93CDB7DEB7CA1BDB0B0FB6F894C5
:10122000DEBF0FBECDBF09942A88398848885F8405
:101230006E847D848C849B84AA84B984C884DF8076
:10124000EE80FD800C811B81AA81B981CE0FD11D5A
:101250000FB6F894DEBF0FBECDBFED010895F89430
:02126000FFCFBE
:101262002564002D00257325642E25303464005733
:10127200656C636F6D6520746F2074686520736D93
:10128200617274206D65746572696E67207379731B
:1012920074656D00766F6C743D0043757272656E95
:1012A200743D005046203D20005046706572633DFB
:1012B200006B776800436F6E73756D656420506FC5
:0812C200776572203D20000059
:00000001FF
