:100000000C942D000C9483080C9483080C948308A2
:100010000C9483080C9483080C9483080C94830834
:100020000C9483080C9483080C9483080C94830824
:100030000C9483080C9483080C9483080C94830814
:100040000C9483080C9483080C9483080C94830804
:100050000C94830800600062800011241FBECFE56D
:10006000D8E0DEBFCDBFE4E5F0E040E017C0B591D9
:10007000A59135912591059107FD0CC0959185912C
:10008000EF01F92FE82F05900D92A217B307D9F7CA
:10009000FE0104C01D92A217B307E1F7E935F4078A
:0E00A00031F70E9466020C945500F894FFCFD1
:1000AE00476F6F6462796500456E746572204944CE
:1000BE0020506C6561736521005468616E6B207908
:1000CE006F750047617465206973206F70656E658A
:1000DE006400676172616765206861732073706187
:1000EE00636500556E617574686F72697A65642018
:0300FE0049440072
:100102008F929F92AF92BF92CF92DF92EF92FF9225
:100112000F931F936B017C01413021F0423009F4AF
:100122008CC0F9C0222319F0213081F15CC082B366
:1001320041E065E00E941A03B80180E090E00E946D
:10014200D2054B015C019B01AC01C701B6010E94C3
:10015200790820E030E048EC52E40E9475089B01E7
:10016200AC01C501B4010E94350820E030E040E84E
:100172005FE30E9435080E94AE067BBD6ABD8FB563
:100182008F738FBD8FB5806C8FBDC5C082B341E0C8
:1001920064E00E941A03B80180E090E00E94D20558
:1001A2004B015C01A70196010E94790820E030E032
:1001B20048EC52E40E9475089B01AC01C501B401F0
:1001C2000E94350820E030E040E85FE30E943508F5
:1001D2000E94AE0679BD68BD8FB58F7C8FBD8FB58D
:1001E20080638FBD98C0B80180E090E00E94D20584
:1001F2004B015C019B01AC01C701B6010E94790869
:1002020020E030E048EC52E40E9475089B01AC010A
:10021200C501B4010E94350820E030E040E85FE308
:100222000E9435080E94AE067BBD6ABD8FB58F73F2
:100232008FBD8FB5806C8FBD6EC0222319F0213027
:1002420031F14AC082B341E065E00E941A03B8016D
:1002520080E090E00E94D205A70196010E947908F1
:1002620020E030E048EC52E40E94750820E030E0E3
:1002720040E85FE30E9435080E94AE067BBD6ABD7E
:100282008FB58F738FBD8FB580688FBD44C082B329
:1002920041E064E00E941A03B80180E090E00E940D
:1002A200D205A70196010E94790820E030E048ECCF
:1002B20052E40E94750820E030E040E85FE30E94CB
:1002C20035080E94AE0679BD68BD8FB58F7C8FBDA3
:1002D2008FB580628FBD1FC0B80180E090E00E94A0
:1002E200D205A70196010E94790820E030E048EC8F
:1002F20052E40E94750820E030E040E85FE30E948B
:1003020035080E94AE067BBD6ABD8FB58F738FBD67
:100312008FB580688FBD1F910F91FF90EF90DF9096
:0C032200CF90BF90AF909F908F900895F7
:10032E007F928F929F92AF92BF92CF92DF92EF9277
:10033E00FF920F931F93CF93DF93982E5B01742E32
:10034E00790168018CE0981631F0EEE09E1649F0C6
:10035E0000E0812C0BC000E30F2EF7E78F2EF02D5F
:10036E0005C000E10F2EF2E18F2EF02D84E00E94E9
:10037E00FC07682F6F7784E00E94E9078AE00E94ED
:10038E00FC07682F60688AE00E94E90760E081E060
:10039E000E94E907C0E0D0E008C0F501EC0FFD1F98
:1003AE00608189E00E94E9072196872D90E0C817A9
:1003BE00D90798F3692D81E00E94E907FCE09F12AE
:1003CE0008C08DE00E94FC07682F60688DE00E94D7
:1003DE00E907C0EDD7E084E00E94FC07182F2197B3
:1003EE0029F080FD03C0802F8123A9F38DE00E94A8
:1003FE00FC07682F6F778DE00E94E907CD2B09F47B
:10040E004CC086E00E94FC078B7109F048C0182191
:10041E0010FD02C0C1E001C0C2E08CE0981240C0E5
:10042E008AE00E94FC07D82F8CE00E94FC07282F40
:10043E00277079F08D2F90E00197880F991F880F04
:10044E00991F880F991F820F911DF601918380834A
:10045E000BC08D2F90E0880F991F880F991F880F62
:10046E00991FF60191838083D11101C0D1E0D13162
:10047E0008F0D0E100E010E00AC06701C00ED11E06
:10048E0089E00E94FC07F60180830F5F1F4F8D2FBE
:10049E0090E00817190788F303C0C3E001C0C3E05A
:1004AE008C2FDF91CF911F910F91FF90EF90DF90E6
:0E04BE00CF90BF90AF909F908F907F90089549
:1004CC00CF93DF9300D000D0CDB7DEB741E061E031
:1004DC0080E00E941A0341E063E080E00E941A036E
:1004EC0041E062E080E00E941A030E94910560E006
:1004FC0080E00E9465080E942E0880E895E20E9428
:10050C004C050E94070700E060E080E00E947D0837
:10051C008130D1F70111F8CFFF20B1F36EEA70E012
:10052C0080E00E947E0661E080E00E941E0866EB7F
:10053C0070E080E00E947E0680E29EE49093610071
:10054C008093600006C00000019790936100809337
:10055C00600080916000909161000097A1F7CE013E
:10056C0001960E940F068D8310E00AC0E1E0F0E0D6
:10057C00EC0FFD1FE10FF11D80810E946D081F5FC4
:10058C001430A0F30E9471088130C9F50E949307C2
:10059C0067EC70E080E00E947E0680E00E94B0076D
:1005AC0085E392E8909361008093600006C00000A0
:1005BC00019790936100809360008091600090910E
:1005CC0061000097A1F78AE50E94B00761E080E026
:1005DC000E941E0861ED70E080E00E947E0641E002
:1005EC0061E080E00E949303FA9481E00E949307FB
:1005FC0060EE70E080E00E947E0601E085CF811104
:10060C0083CF81E00E94930761EF70E080E00E944D
:10061C007E0641E062E080E00E94930341E063E0EB
:08062C0080E00E94930370CFEF
:10063400843008F075C0683008F072C04130B9F5F4
:10064400813091F028F08230D9F0833029F12FC025
:100654009AB321E030E0062E02C0220F331F0A9421
:10066400E2F7292B2ABB23C097B321E030E0062E02
:1006740002C0220F331F0A94E2F7292B27BB17C0AD
:1006840094B321E030E0062E02C0220F331F0A94F7
:10069400E2F7292B24BB0BC091B321E030E0062EF6
:1006A40002C0220F331F0A94E2F7292B21BB411108
:1006B40037C0813091F028F08230D9F0833029F1AD
:1006C40008952AB381E090E002C0880F991F6A95CB
:1006D400E2F7809582238ABB089527B381E090E0F6
:1006E40002C0880F991F6A95E2F78095822387BB21
:1006F400089524B381E090E002C0880F991F6A95A1
:10070400E2F78095822384BB089521B381E090E0D1
:1007140002C0880F991F6A95E2F78095822381BBF6
:02072400089536
:10072600843008F075C0683008F072C04130B9F501
:10073600813091F028F08230D9F0833029F12FC032
:100746009BB321E030E0062E02C0220F331F0A942D
:10075600E2F7292B2BBB23C098B321E030E0062E0D
:1007660002C0220F331F0A94E2F7292B28BB17C0B9
:1007760095B321E030E0062E02C0220F331F0A9403
:10078600E2F7292B25BB0BC092B321E030E0062E01
:1007960002C0220F331F0A94E2F7292B22BB411114
:1007A60037C0813091F028F08230D9F0833029F1BA
:1007B60008952BB381E090E002C0880F991F6A95D7
:1007C600E2F7809582238BBB089528B381E090E001
:1007D60002C0880F991F6A95E2F78095822388BB2D
:1007E600089525B381E090E002C0880F991F6A95AD
:1007F600E2F78095822385BB089522B381E090E0DD
:1008060002C0880F991F6A95E2F78095822382BB02
:02081600089543
:1008180010C00E94430858F00E943C0840F029F498
:100828005F3F29F00C94510851110C944B080C941B
:1008380080080E944F0768F39923B1F3552391F379
:10084800951B550BBB27AA2762177307840738F037
:100858009F5F5F4F220F331F441FAA1FA9F335D094
:100868000E2E3AF0E0E832D091505040E695001C48
:10087800CAF72BD0FE2F29D0660F771F881FBB1F02
:10088800261737074807AB07B0E809F0BB0B802DE0
:10089800BF01FF2793585F4F3AF09E3F510578F00C
:1008A8000C9451080C944B085F3FE4F3983ED4F342
:1008B800869577956795B795F7959F5FC9F7880FE0
:1008C800911D9695879597F90895E1E0660F771F32
:1008D800881FBB1F621773078407BA0720F0621BC3
:0E08E800730B840BBA0BEE1F88F7E095089592
:1008F6000FC00E943C0838F00E94430820F0952360
:1009060011F00C9451080C94800811240C944B0897
:100916000E944F0770F3959FC1F3950F50E0551F46
:10092600629FF001729FBB27F00DB11D639FAA273E
:10093600F00DB11DAA1F649F6627B00DA11D661F8D
:10094600829F2227B00DA11D621F739FB00DA11DAE
:10095600621F839FA00D611D221F749F3327A00D68
:10096600611D231F849F600D211D822F762F6A2F04
:1009760011249F5750409AF0F1F088234AF0EE0F69
:10098600FF1FBB1F661F771F881F91505040A9F796
:100996009E3F510580F00C9451080C944B085F3F24
:1009A600E4F3983ED4F3869577956795B795F795D2
:1009B600E7959F5FC1F7FE2B880F911D969587954A
:0409C60097F9089500
:1009CA0011C00E943C0838F00E94430820F039F414
:1009DA009F3F19F426F40C9480080EF4E095E7FB87
:1009EA000C945108E92F0E944F0758F3BA1762076F
:1009FA0073078407950720F079F4A6F50C944A0842
:100A0A000EF4E0950B2EBA2FA02D0B01B90190011F
:100A1A000C01CA01A0011124FF27591B99F0593F63
:100A2A0050F4503E68F11A16F040A22F232F342FAB
:100A3A004427585FF3CF469537952795A795F040F9
:100A4A005395C9F77EF41F16BA0B620B730B840B0E
:100A5A00BAF09150A1F0FF0FBB1F661F771F881FC6
:100A6A00C2F70EC0BA0F621F731F841F48F487951E
:100A7A0077956795B795F7959E3F08F0B0CF939510
:0E0A8A00880F08F09927EE0F9795879508952D
:100A98009C0180B58F7780BD80B5806880BD80B5AA
:100AA8008F7B80BDC901A0E0B0E0880F991FAA1F05
:100AB800BB1F880F991FAA1FBB1F9C01AD01220FE6
:100AC800331F441F551F220F331F441F551F60E05B
:100AD80072E18AE790E00E9471072150310980B5E0
:100AE800806880BD30BD29B980B5826080BD80B581
:100AF800846080BD8AB18B7F8AB980B58F7E80BDC6
:100B080080B58F7D80BD80B5886080BD8AB18860E2
:0A0B18008AB98AB180618AB9089594
:100B22008AE992E0909361008093600006C0000021
:100B32000197909361008093600080916000909192
:100B420061000097A1F787B38E6087BB88B3817F6E
:100B520088BB8AB3806F8ABB84EF91E09093610077
:100B62008093600006C0000001979093610080931B
:100B7200600080916000909161000097A1F70E944F
:100B8200610882E00E94930788E20E94930786E050
:100B92000E94930780E80E9493078FE00E949307C8
:020BA2000895B4
:100BA400E89409C097FB3EF4909580957095619503
:100BB4007F4F8F4F9F4F9923A9F0F92F96E9BB27B9
:100BC4009395F695879577956795B795F111F8CF35
:100BD400FAF4BB0F11F460FF1BC06F5F7F4F8F4FA0
:100BE4009F4F16C0882311F096E911C0772321F096
:100BF4009EE8872F762F05C0662371F096E8862F2E
:100C040070E060E02AF09A95660F771F881FDAF784
:0A0C1400880F9695879597F90895CB
:100C1E00EF92FF920F931F93CF93DF9300D0CDB738
:100C2E00DEB77C0160E08DE00E94E90783E9F70101
:100C3E00808380E281838E010F5F1F4F970142E018
:100C4E00B7018CE00E949701813091F407C0F70143
:100C5E00E90FF11D308123279F5F02C020E090E055
:100C6E009430A8F3F701E90FF11D9081291383E069
:100C7E000F900F90DF91CF911F910F91FF90EF90FA
:020C8E000895C7
:100C9000843070F5683070F5813079F028F082305A
:100CA000A9F08330E1F028C089B390E002C09595A7
:100CB00087956A95E2F78170089586B390E002C047
:100CC000959587956A95E2F78170089583B390E0D2
:100CD00002C0959587956A95E2F78170089580B373
:100CE00090E002C0959587956A95E2F78170089526
:0C0CF00080E0089580E0089580E0089501
:100CFC00CF92DF92EF92CF93DF936B01E82EC0E09F
:100D0C00D0E01AC09FEFC91AD90AE90A0E94DD0681
:100D1C002196C031D10529F461E080E00E941E08C3
:100D2C000BC0C032D10544F00E94610860E080E045
:100D3C000E941E08C0E0D0E0F6018491E7FC80819F
:100D4C008111E0CFDF91CF91EF90DF90CF9008959C
:100D5C000E94570788F09F5798F0B92F9927B751E1
:100D6C00B0F0E1F0660F771F881F991F1AF0BA9543
:100D7C00C9F714C0B13091F00E944A08B1E008954F
:100D8C000C944A08672F782F8827B85F39F0B93F41
:100D9C00CCF3869577956795B395D9F73EF49095F6
:0E0DAC008095709561957F4F8F4F9F4F0895F2
:100DBA00CF93DF931F92CDB7DEB789839BB3898127
:100DCA009F70807F892B8BBB88B3826088BB88B376
:100DDA008B7F88BB0E94CD072BB3998130E1939F0B
:100DEA00C0011124922F9F70892B8BBB88B382601C
:100DFA0088BB88B38B7F88BB0E94CD070F90DF9199
:040E0A00CF910895E7
:100E0E000E9457086DE88AE20E94E9076EE38BE2C2
:100E1E000E94E9076EE18CE20E94E90760E08DE234
:100E2E000E94E90760E485E10E94E9076DE381E134
:100E3E000E94E90784E10E94FC07982F937029F421
:0C0E4E00682F636084E10E94E9070895AA
:100E5A00813019F0823029F008C08EB584608EBDC9
:100E6A0007C08EB583608EBD03C08EB5887F8EBDE8
:100E7A00611109C08FB582608FBD8EB588618EBD44
:100E8A0057BD46BD08958FB58C7F8FBD8EB5877EC1
:040E9A008EBD08956C
:100E9E0057FD9058440F551F59F05F3F71F047951D
:100EAE00880F97FB991F61F09F3F79F08795089502
:100EBE00121613061406551FF2CF4695F1DF08C021
:100ECE00161617061806991FF1CF8695710561053E
:040EDE0008940895D7
:100EE200A1E21A2EAA1BBB1BFD010DC0AA1FBB1F2C
:100EF200EE1FFF1FA217B307E407F50720F0A21B9E
:100F0200B30BE40BF50B661F771F881F991F1A940A
:100F120069F760957095809590959B01AC01BD0134
:040F2200CF0108955E
:100F2600CF93C82F8BB38F709C2F907F892B8BBB51
:100F360088B3897F88BB0E94CD072BB330E1C39F5E
:100F4600C0011124922F9F70892B8BBB88B3897F98
:0A0F560088BB0E94CD07CF910895DB
:100F60000F931F938A3531F0843B31F0882331F0A1
:100F700060E005C067E003C06CE001C063E070E0C2
:100F800080E090E00E94D20504EC19E020E041E00E
:0A0F90000E9481001F910F91089547
:100F9A0088B3877F88BB0000000082E896E09093C0
:100FAA0061008093600006C0000001979093610081
:100FBA008093600080916000909161000097A1F792
:080FCA0088B3886088BB08951C
:100FD200CF93C62F9DB190649DB990E0880F991F61
:100FE2008E770E9469088C2F0E9469088DB18F7BD1
:060FF2008DB9CF910895B6
:100FF8009DB190649DB990E0880F991F8E778068A5
:101008000E94690880E00E945C089DB19F7B9DB9A1
:02101800089539
:10101A00092E0394000C11F4882352F0BB0F40F4FC
:10102A00BF2B11F460FF04C06F5F7F4F8F4F9F4F3C
:02103A00089517
:10103C00611106C0803158F480580E9493070895BE
:10104C00613029F4803118F480540E94930708957C
:0E105C0044EC59E060E082E00E942D07089508
:0E106A005058BB27AA270E94E5040C940D08DD
:0E10780000240A941616170618060906089595
:0E10860000240A941216130614060506089597
:0E109400E894BB2766277727CB0197F90895CC
:0C10A20097F99F6780E870E060E0089517
:0A10AE006FE081E00E94E907089559
:0A10B8008FB9779BFECF8FB108952A
:0810C20081E00E9493070895EC
:0810CA0040E00E941A030895A2
:0810D2008FB9779BFECF089552
:0810DA005D9BFECF8CB9089567
:0810E2005F9BFECF8CB1089565
:0810EA000E940C040C940D0897
:0810F2000E947B040C940D0820
:0610FA000E944806089563
:061100009FEF80EC089552
:041106000C94000045
:00000001FF
