:100000000C942D000C9408070C942F070C945607A1
:100010000C94F9080C94F9080C94F9080C94F9085C
:100020000C94F9080C94F9080C94F9080C94F9084C
:100030000C94F9080C94F9080C94F9080C94F9083C
:100040000C94F9080C94F9080C94F9080C94F9082C
:100050000C94F90800600068800011241FBECFE5F1
:10006000D8E0DEBFCDBFE4E5F0E040E017C0B591D9
:10007000A59135912591059107FD0CC0959185912C
:10008000EF01F92FE82F05900D92A217B307D9F7CA
:10009000FE0104C01D92A217B307E1F7E935F4078A
:0E00A00031F70E9477020C945500F894FFCFC0
:1000AE0057656C636F6D6520617420456E74726167
:1000BE006E6365206761746500506C6561736520C1
:1000CE00456E74657220796F75722049443A0054FA
:1000DE0068616E6B20796F75007468652047617476
:1000EE0065206973206F70656E656400746869734E
:1000FE00204944206973206E6F7420616C6C6F7799
:10010E00656420746F20656E746572207468652056
:06011E00207061726B000D
:100124008F929F92AF92BF92CF92DF92EF92FF9203
:100134000F931F936B017C01413021F0423009F48D
:100144008CC0F9C0222319F0213081F15CC082B344
:1001540041E065E00E941B03B80180E090E00E944A
:10016400D3054B015C019B01AC01C701B6010E94A0
:10017400EF0820E030E048EC52E40E94EB089B01D9
:10018400AC01C501B4010E94AB0820E030E040E8B6
:100194005FE30E94AB080E94AF067BBD6ABD8FB5CA
:1001A4008F738FBD8FB5806C8FBDC5C082B341E0A6
:1001B40064E00E941B03B80180E090E00E94D30534
:1001C4004B015C01A70196010E94EF0820E030E09A
:1001D40048EC52E40E94EB089B01AC01C501B40158
:1001E4000E94AB0820E030E040E85FE30E94AB08E7
:1001F4000E94AF0679BD68BD8FB58F7C8FBD8FB56A
:1002040080638FBD98C0B80180E090E00E94D30560
:100214004B015C019B01AC01C701B6010E94EF08D0
:1002240020E030E048EC52E40E94EB089B01AC0172
:10023400C501B4010E94AB0820E030E040E85FE370
:100244000E94AB080E94AF067BBD6ABD8FB58F7359
:100254008FBD8FB5806C8FBD6EC0222319F0213005
:1002640031F14AC082B341E065E00E941B03B8014A
:1002740080E090E00E94D305A70196010E94EF0858
:1002840020E030E048EC52E40E94EB0820E030E04B
:1002940040E85FE30E94AB080E94AF067BBD6ABDE5
:1002A4008FB58F738FBD8FB580688FBD44C082B307
:1002B40041E064E00E941B03B80180E090E00E94EA
:1002C400D305A70196010E94EF0820E030E048EC36
:1002D40052E40E94EB0820E030E040E85FE30E9433
:1002E400AB080E94AF0679BD68BD8FB58F7C8FBD0A
:1002F4008FB580628FBD1FC0B80180E090E00E947E
:10030400D305A70196010E94EF0820E030E048ECF5
:1003140052E40E94EB0820E030E040E85FE30E94F2
:10032400AB080E94AF067BBD6ABD8FB58F738FBDCE
:100334008FB580688FBD1F910F91FF90EF90DF9074
:0C034400CF90BF90AF909F908F900895D5
:100350007F928F929F92AF92BF92CF92DF92EF9255
:10036000FF920F931F93CF93DF93982E5B01742E10
:10037000790168018CE0981631F0EEE09E1649F0A4
:1003800000E0812C0BC000E30F2EF7E78F2EF02D3D
:1003900005C000E10F2EF2E18F2EF02D84E00E94C7
:1003A0007208682F6F7784E00E945F088AE00E94DD
:1003B0007208682F60688AE00E945F0860E081E050
:1003C0000E945F08C0E0D0E008C0F501EC0FFD1FFF
:1003D000608189E00E945F082196872D90E0C81710
:1003E000D90798F3692D81E00E945F08FCE09F1215
:1003F00008C08DE00E947208682F60688DE00E943E
:100400005F08C0EDD7E084E00E947208182F2197A2
:1004100029F080FD03C0802F8123A9F38DE00E9485
:100420007208682F6F778DE00E945F08CD2B09F46A
:100430004CC086E00E9472088B7109F048C01821F8
:1004400010FD02C0C1E001C0C2E08CE0981240C0C3
:100450008AE00E947208D82F8CE00E947208282F30
:10046000277079F08D2F90E00197880F991F880FE2
:10047000991F880F991F820F911DF6019183808328
:100480000BC08D2F90E0880F991F880F991F880F40
:10049000991FF60191838083D11101C0D1E0D13140
:1004A00008F0D0E100E010E00AC06701C00ED11EE4
:1004B00089E00E947208F60180830F5F1F4F8D2F25
:1004C00090E00817190788F303C0C3E001C0C3E038
:1004D0008C2FDF91CF911F910F91FF90EF90DF90C4
:0E04E000CF90BF90AF909F908F907F90089527
:1004EE00CF93DF9300D000D0CDB7DEB761E083E0CD
:1004FE000E94DB080E94A4080E94920580E895E203
:10050E000E944D050E947D0741E060E082E00E945E
:10051E001B0341E065E082E00E941B0341E066E0C0
:10052E0082E00E941B0341E067E082E00E941B0311
:10053E0040E061E083E00E941B0300E080E00E9447
:10054E00260860E080E00E94F3088130B9F704319C
:10055E00A8F76EEA70E080E00E947F0661E080E01E
:10056E000E94940867EC70E080E00E947F06CE0146
:10057E0001960E9410068D8310E00AC0E1E0F0E0C3
:10058E00EC0FFD1FE10FF11D80810E94E3081F5F3C
:10059E001430A0F30E94D7080E94E708813079F545
:1005AE008AE50E94260861E080E00E9494086DEDC5
:1005BE0070E080E00E947F0661E080E00E94940877
:1005CE0067EE70E080E00E947F0641E067E082E027
:1005DE000E9494030F5F80EA96E8909361008093E7
:1005EE00600006C000000197909361008093600048
:1005FE0080916000909161000097A1F79FCF8111CB
:10060E009DCF61E00E9494086AEF70E080E00E9446
:10061E007F0641E066E082E00E94940341E065E0DF
:08062E0082E00E9494038ACFD0
:10063600843008F075C0683008F072C04130B9F5F2
:10064600813091F028F08230D9F0833029F12FC023
:100656009AB321E030E0062E02C0220F331F0A941F
:10066600E2F7292B2ABB23C097B321E030E0062E00
:1006760002C0220F331F0A94E2F7292B27BB17C0AB
:1006860094B321E030E0062E02C0220F331F0A94F5
:10069600E2F7292B24BB0BC091B321E030E0062EF4
:1006A60002C0220F331F0A94E2F7292B21BB411106
:1006B60037C0813091F028F08230D9F0833029F1AB
:1006C60008952AB381E090E002C0880F991F6A95C9
:1006D600E2F7809582238ABB089527B381E090E0F4
:1006E60002C0880F991F6A95E2F78095822387BB1F
:1006F600089524B381E090E002C0880F991F6A959F
:10070600E2F78095822384BB089521B381E090E0CF
:1007160002C0880F991F6A95E2F78095822381BBF4
:02072600089534
:10072800843008F075C0683008F072C04130B9F5FF
:10073800813091F028F08230D9F0833029F12FC030
:100748009BB321E030E0062E02C0220F331F0A942B
:10075800E2F7292B2BBB23C098B321E030E0062E0B
:1007680002C0220F331F0A94E2F7292B28BB17C0B7
:1007780095B321E030E0062E02C0220F331F0A9401
:10078800E2F7292B25BB0BC092B321E030E0062EFF
:1007980002C0220F331F0A94E2F7292B22BB411112
:1007A80037C0813091F028F08230D9F0833029F1B8
:1007B80008952BB381E090E002C0880F991F6A95D5
:1007C800E2F7809582238BBB089528B381E090E0FF
:1007D80002C0880F991F6A95E2F78095822388BB2B
:1007E800089525B381E090E002C0880F991F6A95AB
:1007F800E2F78095822385BB089522B381E090E0DB
:1008080002C0880F991F6A95E2F78095822382BB00
:02081800089541
:10081A0010C00E94B90858F00E94B20840F029F4AA
:10082A005F3F29F00C94C70851110C94C1080C942D
:10083A00F6080E94C50768F39923B1F3552391F38B
:10084A00951B550BBB27AA2762177307840738F035
:10085A009F5F5F4F220F331F441FAA1FA9F335D092
:10086A000E2E3AF0E0E832D091505040E695001C46
:10087A00CAF72BD0FE2F29D0660F771F881FBB1F00
:10088A00261737074807AB07B0E809F0BB0B802DDE
:10089A00BF01FF2793585F4F3AF09E3F510578F00A
:1008AA000C94C7080C94C1085F3FE4F3983ED4F354
:1008BA00869577956795B795F7959F5FC9F7880FDE
:1008CA00911D9695879597F90895E1E0660F771F30
:1008DA00881FBB1F621773078407BA0720F0621BC1
:0E08EA00730B840BBA0BEE1F88F7E095089590
:1008F8000FC00E94B20838F00E94B90820F0952372
:1009080011F00C94C7080C94F60811240C94C10833
:100918000E94C50770F3959FC1F3950F50E0551FCE
:10092800629FF001729FBB27F00DB11D639FAA273C
:10093800F00DB11DAA1F649F6627B00DA11D661F8B
:10094800829F2227B00DA11D621F739FB00DA11DAC
:10095800621F839FA00D611D221F749F3327A00D66
:10096800611D231F849F600D211D822F762F6A2F02
:1009780011249F5750409AF0F1F088234AF0EE0F67
:10098800FF1FBB1F661F771F881F91505040A9F794
:100998009E3F510580F00C94C7080C94C1085F3F36
:1009A800E4F3983ED4F3869577956795B795F795D0
:1009B800E7959F5FC1F7FE2B880F911D9695879548
:0409C80097F90895FE
:1009CC0011C00E94B20838F00E94B90820F039F426
:1009DC009F3F19F426F40C94F6080EF4E095E7FB0F
:1009EC000C94C708E92F0E94C50758F3BA17620781
:1009FC0073078407950720F079F4A6F50C94C008CA
:100A0C000EF4E0950B2EBA2FA02D0B01B90190011D
:100A1C000C01CA01A0011124FF27591B99F0593F61
:100A2C0050F4503E68F11A16F040A22F232F342FA9
:100A3C004427585FF3CF469537952795A795F040F7
:100A4C005395C9F77EF41F16BA0B620B730B840B0C
:100A5C00BAF09150A1F0FF0FBB1F661F771F881FC4
:100A6C00C2F70EC0BA0F621F731F841F48F487951C
:100A7C0077956795B795F7959E3F08F0B0CF93950E
:0E0A8C00880F08F09927EE0F9795879508952B
:100A9A009C0180B58F7780BD80B5806880BD80B5A8
:100AAA008F7B80BDC901A0E0B0E0880F991FAA1F03
:100ABA00BB1F880F991FAA1FBB1F9C01AD01220FE4
:100ACA00331F441F551F220F331F441F551F60E059
:100ADA0072E18AE790E00E94E7072150310980B568
:100AEA00806880BD30BD29B980B5826080BD80B57F
:100AFA00846080BD8AB18B7F8AB980B58F7E80BDC4
:100B0A0080B58F7D80BD80B5886080BD8AB18860E0
:0A0B1A008AB98AB180618AB9089592
:100B24008AE992E0909361008093600006C000001F
:100B34000197909361008093600080916000909190
:100B440061000097A1F787B3876087BB88B3887F6C
:100B540088BB8AB3806F8ABB84EF91E09093610075
:100B64008093600006C00000019790936100809319
:100B7400600080916000909161000097A1F70E944D
:100B8400D70882E00E94090888E20E94090886E0EA
:100B94000E94090880E80E9409088FE00E94090861
:020BA4000895B2
:100BA600E89409C097FB3EF4909580957095619501
:100BB6007F4F8F4F9F4F9923A9F0F92F96E9BB27B7
:100BC6009395F695879577956795B795F111F8CF33
:100BD600FAF4BB0F11F460FF1BC06F5F7F4F8F4F9E
:100BE6009F4F16C0882311F096E911C0772321F094
:100BF6009EE8872F762F05C0662371F096E8862F2C
:100C060070E060E02AF09A95660F771F881FDAF782
:0A0C1600880F9695879597F90895C9
:100C2000EF92FF920F931F93CF93DF9300D0CDB736
:100C3000DEB77C0160E08DE00E945F0883E9F70188
:100C4000808380E281838E010F5F1F4F970142E016
:100C5000B7018CE00E94A801813091F407C0F70130
:100C6000E90FF11D308123279F5F02C020E090E053
:100C70009430A8F3F701E90FF11D9081291383E067
:100C80000F900F90DF91CF911F910F91FF90EF90F8
:020C90000895C5
:100C9200843070F5683070F5813079F028F0823058
:100CA200A9F08330E1F028C089B390E002C09595A5
:100CB20087956A95E2F78170089586B390E002C045
:100CC200959587956A95E2F78170089583B390E0D0
:100CD20002C0959587956A95E2F78170089580B371
:100CE20090E002C0959587956A95E2F78170089524
:0C0CF20080E0089580E0089580E00895FF
:100CFE00CF92DF92EF92CF93DF936B01E82EC0E09D
:100D0E00D0E01AC09FEFC91AD90AE90A0E94DE067E
:100D1E002196C031D10529F461E080E00E9494084B
:100D2E000BC0C032D10544F00E94D70860E080E0CD
:100D3E000E949408C0E0D0E0F6018491E7FC808127
:100D4E008111E0CFDF91CF91EF90DF90CF9008959A
:100D5E000E94CD0788F09F5798F0B92F9927B75169
:100D6E00B0F0E1F0660F771F881F991F1AF0BA9541
:100D7E00C9F714C0B13091F00E94C008B1E00895D7
:100D8E000C94C008672F782F8827B85F39F0B93FC9
:100D9E00CCF3869577956795B395D9F73EF49095F4
:0E0DAE008095709561957F4F8F4F9F4F0895F0
:100DBC00CF93DF931F92CDB7DEB789839BB3898125
:100DCC009F70807F892B8BBB88B3816088BB88B375
:100DDC008D7F88BB0E9443082BB3998130E1939F90
:100DEC00C0011124922F9F70892B8BBB88B381601B
:100DFC0088BB88B38D7F88BB0E9443080F90DF911E
:040E0C00CF910895E5
:100E10001F920F920FB60F9211242F933F934F936F
:100E20005F936F937F938F939F93AF93BF93EF9352
:100E3000FF93E0916400F09165000995FF91EF91B7
:100E4000BF91AF919F918F917F916F915F914F91E2
:0E0E50003F912F910F900FBE0F901F9018959D
:100E5E001F920F920FB60F9211242F933F934F9321
:100E6E005F936F937F938F939F93AF93BF93EF9304
:100E7E00FF93E0916600F09167000995FF91EF9165
:100E8E00BF91AF919F918F917F916F915F914F9194
:0E0E9E003F912F910F900FBE0F901F9018954F
:100EAC001F920F920FB60F9211242F933F934F93D3
:100EBC005F936F937F938F939F93AF93BF93EF93B6
:100ECC00FF93E0916200F09163000995FF91EF911F
:100EDC00BF91AF919F918F917F916F915F914F9146
:0E0EEC003F912F910F900FBE0F901F90189501
:100EFA000E94CD086DE88AE20E945F086EE38BE2E9
:100F0A000E945F086EE18CE20E945F0860E08DE259
:100F1A000E945F0860E485E10E945F086DE381E159
:100F2A000E945F0884E10E947208982F937029F446
:0C0F3A00682F636084E10E945F08089546
:100F4600813019F0823029F008C08EB584608EBDDC
:100F560007C08EB583608EBD03C08EB5887F8EBDFB
:100F6600611109C08FB582608FBD8EB588618EBD57
:100F760057BD46BD08958FB58C7F8FBD8EB5877ED4
:040F86008EBD08957F
:100F8A0057FD9058440F551F59F05F3F71F0479530
:100F9A00880F97FB991F61F09F3F79F08795089515
:100FAA00121613061406551FF2CF4695F1DF08C034
:100FBA00161617061806991FF1CF86957105610551
:040FCA0008940895EA
:100FCE00A1E21A2EAA1BBB1BFD010DC0AA1FBB1F3F
:100FDE00EE1FFF1FA217B307E407F50720F0A21BB1
:100FEE00B30BE40BF50B661F771F881F991F1A941E
:100FFE0069F760957095809590959B01AC01BD0148
:04100E00CF01089571
:10101200CF93C82F8BB38F709C2F907F892B8BBB64
:1010220088B38C7F88BB0E9443082BB330E1C39FF7
:10103200C0011124922F9F70892B8BBB88B38C7FA8
:0A10420088BB0E944308CF91089577
:10104C000F931F938A3531F0843B31F0882331F0B4
:10105C0060E005C067E003C06CE001C063E070E0D5
:10106C0080E090E00E94D30504EC19E020E041E020
:0A107C000E9492001F910F91089549
:1010860088B38B7F88BB0000000082E896E09093CF
:1010960061008093600006C0000001979093610094
:1010A6008093600080916000909161000097A1F7A5
:0810B60088B3846088BB089533
:1010BE00CF93C62F9DB190649DB990E0880F991F74
:1010CE008E770E94DF088C2F0E94DF088DB18F7BF8
:0610DE008DB9CF910895C9
:1010E4009DB190649DB990E0880F991F8E778068B8
:1010F4000E94DF0880E00E94D2089DB19F7B9DB9C9
:0211040008954C
:10110600092E0394000C11F4882352F0BB0F40F40F
:10111600BF2B11F460FF04C06F5F7F4F8F4F9F4F4F
:0211260008952A
:10112800611106C0803158F480580E94090808955A
:10113800613029F4803118F480540E940908089518
:0E11480044EC59E060E082E00E94A3070895A5
:0E1156005058BB27AA270E94E6040C94830879
:0E11640000240A9416161706180609060895A8
:0E11720000240A9412161306140605060895AA
:0E118000E894BB2766277727CB0197F90895DF
:0C118E0097F99F6780E870E060E008952A
:0A119A006FE081E00E945F080895F5
:0A11A4008FB9779BFECF8FB108953D
:0811AE0081E00E940908089588
:0811B60040E00E941B030895B4
:0811BE008FB9779BFECF089565
:0811C6005D9BFECF8CB908957A
:0811CE005F9BFECF8CB1089578
:0811D6000E940D040C94830833
:0811DE000E947C040C948308BC
:0611E6000E944906089575
:0611EC009FEF80EC089566
:0411F2000C94000059
:00000001FF
