:100000000C942A000C9447000C9447000C94470071
:100010000C9447000C9447000C9447000C94470044
:100020000C9447000C9447000C9447000C94470034
:100030000C9447000C9447000C9447000C94470024
:100040000C9447000C9447000C9447000C94470014
:100050000C94470011241FBECFE5D8E0DEBFCDBF12
:1000600010E0A0E6B0E0E6E0FFE002C005900D92EF
:10007000A436B107D9F720E0A4E6B0E001C01D9294
:10008000A836B207E1F70E9498000C9481070C94FF
:1000900000001F93CF93DF93D82FC62F122F642F0A
:1000A00080E090E00E943A0183EC99E00197F1F73B
:1000B00000C00000612F81E090E00E943A0183ECD3
:1000C00099E00197F1F700C000006D2F82E090E009
:1000D0000E943A0183EC99E00197F1F700C000001B
:1000E0006C2F83E090E00E943A0183EC99E0019745
:1000F000F1F700C00000DF91CF911F91089567E6EE
:1001000070E082E090E00E94620166E670E083E0C9
:1001100090E00E94620165E670E080E090E00E945D
:10012000620164E670E081E090E00E94620108955F
:10013000CF93DF9300D000D01F92CDB7DEB787EA10
:1001400091E60197F1F700C000000E94360386E0B7
:100150000E94F6010E94D80360E875E280E090E01A
:100160000E94A20482E3898383E18A8381E18B83F5
:100170001D8280E28C83CE0101960E946402209150
:1001800060004091610060916200809163000E9474
:1001900049000E947F0001E086E00E94FC01182FC8
:1001A000CE0101960E94E6028D81811122C08B81D1
:1001B000909167009817A0F0891305C02A8190914B
:1001C0006600291778F490916500891768F0891303
:1001D0000DC09A8180916400891750F401E009C034
:1001E00000E007C000E005C000E003C001E001C07E
:1001F00000E0011138C01B3538F041E060E070E0EC
:10020000CB010E946F04C8CF89EB810F833140F48A
:1002100041E060E070E080EF91E40E946F04BCCFA9
:100220008DEC810F833140F441E060E070E088E4C0
:1002300092E40E946F04B0CF81EE810F833140F4CD
:1002400041E060E070E08CE892E40E946F04A4CF8B
:100250001E3108F0A1CF41E060E070E088EC92E44C
:100260000E946F0499CF41E060E070E0CB010E94F2
:100270006F0492CF0F931F93CF93DF93182FD92F33
:10028000062F0E94E603C82F8130B1F48D2F8370B2
:1002900080650E942504C82F813071F4812F0E944F
:1002A0003804C82F813041F4802F0E943804C82FB1
:1002B000813011F40E9408048C2FDF91CF911F919F
:1002C0000F910895EF92FF921F93CF93DF93182F12
:1002D000D92F7B010E94E603C82F813009F5D37026
:1002E000D0658D2F0E942504C82F8130C9F4812F3D
:1002F0000E943804C82F813099F40E94F703C82F58
:10030000813071F48D2F0E940F04C82F813041F489
:10031000C7010E944704C82F813011F40E940804CD
:100320008C2FDF91CF911F91FF90EF9008954F9206
:100330005F926F927F92AF92BF92CF92DF92EF92D5
:10034000FF920F931F93CF93DF93CDB7DEB728971C
:100350000FB6F894DEBF0FBECDBF29013A01ED8282
:10036000FE820F8318870E94000569837A838B833E
:100370009C83A6019501698D7A8D8B8D9C8D0E9441
:1003800000059B01AC0169817A818B819C810E946F
:100390009C0669837A838B839C83A3019201C801A5
:1003A000B7010E9400059B01AC0169817A818B81B4
:1003B0009C810E946D059B01AC01C601B5010E94A4
:1003C000010528960FB6F894DEBF0FBECDBFDF91B2
:1003D000CF911F910F91FF90EF90DF90CF90BF9042
:1003E000AF907F906F905F904F90089540E0682F9E
:1003F00080E00E9450030895AF92BF92CF92DF92A7
:10040000EF92FF920F931F930E943B03BC0180E089
:1004100090E00E940E061F921F921F921F920F2EB5
:10042000A12CB12CF8ECCF2EF2E4DF2EF02DE12C34
:10043000F12C00E814E420E030E84BE354E40E949F
:1004400097010F900F900F900F900E94DF05862F5D
:100450001F910F91FF90EF90DF90CF90BF90AF90E2
:100460000895FC01DB018C9182958F70880F982F85
:10047000990F990F890F80839C919F70890F8083BA
:1004800011968C91119782958F70880F982F990FE4
:10049000990F890F818311969C9111979F70890FF5
:1004A0008183148212969C91129792959F709370FB
:1004B000990F892F880F880F980F928312968C912D
:1004C0008F70980F928308950F931F93CF93DF93AC
:1004D000FC0180819DEC899F212D11242695269574
:1004E0002695D22FD295D07F220F322F330F330F84
:1004F000230F821B8D2BD82FDF778181899F212DA0
:100500001124269526952695122F1295107F220FDD
:10051000322F330F330F230F821B182B2281299F79
:10052000912D11249695969596959295907FC481DC
:10053000C11110C03DEC239F312D11243695369505
:100540003695330F832F880F880F380F231BC22B4C
:10055000C92B11C08381C82B3DEC239F312D112461
:10056000369536953695330F832F880F880F380FC1
:10057000231BC22BC92B0E94E603082F813001F5F3
:1005800088E60E942504082F8130D1F480E00E9483
:100590003804082F8130A1F48D2F0E943804082FD1
:1005A000813071F4812F0E943804082F813041F48A
:1005B0008C2F0E943804082F813011F40E94080407
:1005C000802FDF91CF911F910F910895EF92FF92AD
:1005D0001F93CF93DF9300D01F92CDB7DEB77C017E
:1005E00019821A821B820E94E603182F813071F54E
:1005F00088E60E942504182F813041F580E00E9492
:100600003804182F813011F50E94F703182F81301C
:10061000E9F488E60E940F04182F8130B9F4CE0166
:1006200001960E945B04182F813081F4CE0102965E
:100630000E945B04182F813049F4CE0103960E947A
:100640004704182F813011F40E940804BE016F5F27
:100650007F4FC7010E943102812F0F900F900F90A2
:10066000DF91CF911F91FF90EF90089580E687B9B9
:1006700087E886B9089597B1907E97B997B1892B8D
:1006800087B986B1806486B9349BFECF85B190E08E
:1006900026B1206126B9880F991F880F991F0895E8
:1006A000843008F07BC0683008F07AC04130C1F572
:1006B000813091F028F08230D9F0833029F172C076
:1006C0002AB381E090E002C0880F991F6A95E2F793
:1006D000822B8ABB81E0089527B381E090E002C0BD
:1006E000880F991F6A95E2F7822B87BB81E00895F6
:1006F00024B381E090E002C0880F991F6A95E2F769
:10070000822B84BB81E0089521B381E090E002C098
:10071000880F991F6A95E2F7822B81BB81E00895CB
:10072000411142C0813099F028F08230E9F08330E5
:1007300041F13CC02AB381E090E002C0880F991FCC
:100740006A95E2F7809582238ABB81E0089527B3FA
:1007500081E090E002C0880F991F6A95E2F78095CA
:10076000822387BB81E0089524B381E090E002C03A
:10077000880F991F6A95E2F78095822384BB81E0F8
:10078000089521B381E090E002C0880F991F6A9517
:10079000E2F78095822381BB81E0089580E008958F
:1007A00080E0089581E0089581E0089581E0089552
:1007B00082E082B981B18E7F81B981B18D7F81B9AB
:1007C00080E280B986B7846086BF089586B780626C
:1007D00086BF86B7806886BF06B607FEFDCF81B1AB
:1007E000887F883011F080E0089581E0089586B711
:1007F000806286BF86B7806886BF06B607FEFDCFDB
:1008000081B1887F803111F080E0089581E0089502
:1008100086B7806186BF86B7806886BF089590E0FE
:10082000880F991F816083B986B78F7D86BF86B791
:10083000806886BF06B607FEFDCF81B1887F803411
:1008400011F080E0089581E00895880F83B986B79C
:100850008F7D86BF86B7806886BF06B607FEFDCF50
:1008600081B1887F883111F080E0089581E008959A
:1008700083B986B7806886BF06B607FEFDCF81B113
:10088000887F883211F080E0089581E00895FC01AE
:1008900096B7906896BF96B79F7B96BF06B607FE41
:1008A000FDCF91B1987F983521F483B1808381E0A9
:1008B000089580E00895FC0196B7906896BF96B7BA
:1008C000906496BF06B607FEFDCF91B1987F903534
:1008D00021F483B1808381E0089580E0089528E0C9
:1008E00027BB413019F04230D9F0089520E030E0C4
:1008F0004FE753E40E949C0620E030E048EC52E4CD
:100900000E946D059B01AC0160E070E08FE793E40D
:100910000E9400050E94DF056CBF81E783BF089538
:1009200020E030E04FE753E40E949C0620E030E0F6
:1009300048EC52E40E946D050E94DF056CBF81E621
:1009400083BF0895AF92BF92CF92DF92EF92FF9252
:100950000F931F93CF93DF9320B52F7720BD20B542
:10096000206820BD20B52F7B20BDDC01CB01282FC6
:10097000392F4A2F5B2F60E070E080E090E004E0C8
:100980000E946807A22EB32EC42ED52EE62EF72E77
:10099000082F192F20E032E14AE750E060E070E0D4
:1009A00080E090E00E940B07022F132F01501109E5
:1009B00080B5806880BD10BD09B980B5826080BDFA
:1009C00080B5846080BD8AB18B7F8AB980B58F7E07
:1009D00080BD80B58F7D80BD80B5886080BD8AB1C7
:1009E00088608AB98AB180618AB9DF91CF911F91FD
:1009F0000F91FF90EF90DF90CF90BF90AF90089550
:100A00005058BB27AA270E9418050C9462060E9422
:100A1000540638F00E945B0620F039F49F3F19F429
:100A200026F40C9451060EF4E095E7FB0C944B066B
:100A3000E92F0E94730658F3BA17620773078407F9
:100A4000950720F079F4A6F50C9495060EF4E09540
:100A50000B2EBA2FA02D0B01B90190010C01CA0178
:100A6000A0011124FF27591B99F0593F50F4503E23
:100A700068F11A16F040A22F232F342F4427585F15
:100A8000F3CF469537952795A795F0405395C9F72D
:100A90007EF41F16BA0B620B730B840BBAF09150E5
:100AA000A1F0FF0FBB1F661F771F881FC2F70EC084
:100AB000BA0F621F731F841F48F487957795679557
:100AC000B795F7959E3F08F0B0CF9395880F08F043
:100AD0009927EE0F9795879508950E9481050C94AC
:100AE00062060E945B0658F00E94540640F029F40A
:100AF0005F3F29F00C944B0651110C9496060C9410
:100B000051060E94730668F39923B1F3552391F3BC
:100B1000951B550BBB27AA2762177307840738F06C
:100B20009F5F5F4F220F331F441FAA1FA9F335D0C9
:100B30000E2E3AF0E0E832D091505040E695001C7D
:100B4000CAF72BD0FE2F29D0660F771F881FBB1F37
:100B5000261737074807AB07B0E809F0BB0B802D15
:100B6000BF01FF2793585F4F3AF09E3F510578F041
:100B70000C944B060C9496065F3FE4F3983ED4F336
:100B8000869577956795B795F7959F5FC9F7880F15
:100B9000911D9695879597F90895E1E0660F771F67
:100BA000881FBB1F621773078407BA0720F0621BF8
:100BB000730B840BBA0BEE1F88F7E09508950E9423
:100BC0007B0688F09F5798F0B92F9927B751B0F05E
:100BD000E1F0660F771F881F991F1AF0BA95C9F7C1
:100BE00014C0B13091F00E949506B1E008950C94C4
:100BF0009506672F782F8827B85F39F0B93FCCF377
:100C0000869577956795B395D9F73EF4909580953D
:100C1000709561957F4F8F4F9F4F0895E89409C05D
:100C200097FB3EF490958095709561957F4F8F4F1F
:100C30009F4F9923A9F0F92F96E9BB279395F69535
:100C4000879577956795B795F111F8CFFAF4BB0FB3
:100C500011F460FF1BC06F5F7F4F8F4F9F4F16C017
:100C6000882311F096E911C0772321F09EE8872FA1
:100C7000762F05C0662371F096E8862F70E060E05D
:100C80002AF09A95660F771F881FDAF7880F9695D6
:100C9000879597F9089597F99F6780E870E060E07D
:100CA00008959FEF80EC089500240A941616170605
:100CB00018060906089500240A941216130614064D
:100CC00005060895092E0394000C11F4882352F0B0
:100CD000BB0F40F4BF2B11F460FF04C06F5F7F4F68
:100CE0008F4F9F4F089557FD9058440F551F59F04F
:100CF0005F3F71F04795880F97FB991F61F09F3F09
:100D000079F087950895121613061406551FF2CF31
:100D10004695F1DF08C0161617061806991FF1CF81
:100D200086957105610508940895E894BB276627A8
:100D30007727CB0197F908950E94AF060C946206BD
:100D40000E94540638F00E945B0620F0952311F0B3
:100D50000C944B060C94510611240C9496060E9498
:100D6000730670F3959FC1F3950F50E0551F629F76
:100D7000F001729FBB27F00DB11D639FAA27F00DF4
:100D8000B11DAA1F649F6627B00DA11D661F829F1B
:100D90002227B00DA11D621F739FB00DA11D621F00
:100DA000839FA00D611D221F749F3327A00D611D1D
:100DB000231F849F600D211D822F762F6A2F1124FF
:100DC0009F5750409AF0F1F088234AF0EE0FFF1F32
:100DD000BB1F661F771F881F91505040A9F79E3F89
:100DE000510580F00C944B060C9496065F3FE4F39B
:100DF000983ED4F3869577956795B795F795E795DF
:100E00009F5FC1F7FE2B880F911D9695879597F9E7
:100E10000895689401C0E8948F929F92CF93DF93D6
:100E20000E941707DF91CF919F908F90089588249B
:100E30009924F401E401B0E49F93AA279A158B0446
:100E40009C04ED05FE05CF05D007A10798F4AD2F52
:100E5000DC2FCF2FFE2FE92D982C892E982F872F4E
:100E6000762F652F542F432F322F2227B85031F77A
:100E7000BF9127C01B2EBF91BB27220F331F441FDA
:100E8000551F661F771F881F991F881C991CEE1F0E
:100E9000FF1FCC1FDD1FAA1FBB1F8A149B04EC057C
:100EA000FD05CE05DF05A007B10748F08A189B08AD
:100EB000EC09FD09CE09DF09A00BB10B21601A94E2
:100EC000E1F62EF49401AF01BE01CD01000C0895AE
:100ED0000F93083090F0982F872F762F652F542F7F
:100EE000432F322F22270850F4CF220F331F441FE5
:100EF000551F661F771F881F991F0A95B2F70F911C
:060F00000895F894FFCFF4
:040F060014110F06AD
:00000001FF
